{
  "abi": [
    {
      "inputs": [],
      "stateMutability": "nonpayable",
      "type": "constructor"
    },
    {
      "anonymous": false,
      "inputs": [
        {
          "indexed": true,
          "internalType": "address",
          "name": "owner",
          "type": "address"
        },
        {
          "indexed": true,
          "internalType": "address",
          "name": "approved",
          "type": "address"
        },
        {
          "indexed": true,
          "internalType": "uint256",
          "name": "tokenId",
          "type": "uint256"
        }
      ],
      "name": "Approval",
      "type": "event"
    },
    {
      "anonymous": false,
      "inputs": [
        {
          "indexed": true,
          "internalType": "address",
          "name": "owner",
          "type": "address"
        },
        {
          "indexed": true,
          "internalType": "address",
          "name": "operator",
          "type": "address"
        },
        {
          "indexed": false,
          "internalType": "bool",
          "name": "approved",
          "type": "bool"
        }
      ],
      "name": "ApprovalForAll",
      "type": "event"
    },
    {
      "anonymous": false,
      "inputs": [
        {
          "indexed": true,
          "internalType": "address",
          "name": "previousOwner",
          "type": "address"
        },
        {
          "indexed": true,
          "internalType": "address",
          "name": "newOwner",
          "type": "address"
        }
      ],
      "name": "OwnershipTransferred",
      "type": "event"
    },
    {
      "anonymous": false,
      "inputs": [
        {
          "indexed": true,
          "internalType": "address",
          "name": "from",
          "type": "address"
        },
        {
          "indexed": true,
          "internalType": "address",
          "name": "to",
          "type": "address"
        },
        {
          "indexed": true,
          "internalType": "uint256",
          "name": "tokenId",
          "type": "uint256"
        }
      ],
      "name": "Transfer",
      "type": "event"
    },
    {
      "inputs": [
        {
          "internalType": "address",
          "name": "to",
          "type": "address"
        },
        {
          "internalType": "uint256",
          "name": "tokenId",
          "type": "uint256"
        }
      ],
      "name": "approve",
      "outputs": [],
      "stateMutability": "nonpayable",
      "type": "function"
    },
    {
      "inputs": [
        {
          "internalType": "address",
          "name": "owner",
          "type": "address"
        }
      ],
      "name": "balanceOf",
      "outputs": [
        {
          "internalType": "uint256",
          "name": "",
          "type": "uint256"
        }
      ],
      "stateMutability": "view",
      "type": "function"
    },
    {
      "inputs": [
        {
          "internalType": "address",
          "name": "",
          "type": "address"
        }
      ],
      "name": "credits",
      "outputs": [
        {
          "internalType": "uint256",
          "name": "",
          "type": "uint256"
        }
      ],
      "stateMutability": "view",
      "type": "function"
    },
    {
      "inputs": [
        {
          "internalType": "uint256",
          "name": "tokenId",
          "type": "uint256"
        }
      ],
      "name": "getApproved",
      "outputs": [
        {
          "internalType": "address",
          "name": "",
          "type": "address"
        }
      ],
      "stateMutability": "view",
      "type": "function"
    },
    {
      "inputs": [
        {
          "internalType": "address",
          "name": "owner",
          "type": "address"
        },
        {
          "internalType": "address",
          "name": "operator",
          "type": "address"
        }
      ],
      "name": "isApprovedForAll",
      "outputs": [
        {
          "internalType": "bool",
          "name": "",
          "type": "bool"
        }
      ],
      "stateMutability": "view",
      "type": "function"
    },
    {
      "inputs": [
        {
          "internalType": "uint256",
          "name": "",
          "type": "uint256"
        }
      ],
      "name": "messages",
      "outputs": [
        {
          "internalType": "string",
          "name": "",
          "type": "string"
        }
      ],
      "stateMutability": "view",
      "type": "function"
    },
    {
      "inputs": [],
      "name": "name",
      "outputs": [
        {
          "internalType": "string",
          "name": "",
          "type": "string"
        }
      ],
      "stateMutability": "view",
      "type": "function"
    },
    {
      "inputs": [],
      "name": "owner",
      "outputs": [
        {
          "internalType": "address",
          "name": "",
          "type": "address"
        }
      ],
      "stateMutability": "view",
      "type": "function"
    },
    {
      "inputs": [
        {
          "internalType": "uint256",
          "name": "tokenId",
          "type": "uint256"
        }
      ],
      "name": "ownerOf",
      "outputs": [
        {
          "internalType": "address",
          "name": "",
          "type": "address"
        }
      ],
      "stateMutability": "view",
      "type": "function"
    },
    {
      "inputs": [
        {
          "internalType": "string",
          "name": "message",
          "type": "string"
        }
      ],
      "name": "post",
      "outputs": [],
      "stateMutability": "nonpayable",
      "type": "function"
    },
    {
      "inputs": [],
      "name": "renounceOwnership",
      "outputs": [],
      "stateMutability": "nonpayable",
      "type": "function"
    },
    {
      "inputs": [
        {
          "internalType": "address",
          "name": "from",
          "type": "address"
        },
        {
          "internalType": "address",
          "name": "to",
          "type": "address"
        },
        {
          "internalType": "uint256",
          "name": "tokenId",
          "type": "uint256"
        }
      ],
      "name": "safeTransferFrom",
      "outputs": [],
      "stateMutability": "nonpayable",
      "type": "function"
    },
    {
      "inputs": [
        {
          "internalType": "address",
          "name": "from",
          "type": "address"
        },
        {
          "internalType": "address",
          "name": "to",
          "type": "address"
        },
        {
          "internalType": "uint256",
          "name": "tokenId",
          "type": "uint256"
        },
        {
          "internalType": "bytes",
          "name": "data",
          "type": "bytes"
        }
      ],
      "name": "safeTransferFrom",
      "outputs": [],
      "stateMutability": "nonpayable",
      "type": "function"
    },
    {
      "inputs": [
        {
          "internalType": "address",
          "name": "operator",
          "type": "address"
        },
        {
          "internalType": "bool",
          "name": "approved",
          "type": "bool"
        }
      ],
      "name": "setApprovalForAll",
      "outputs": [],
      "stateMutability": "nonpayable",
      "type": "function"
    },
    {
      "inputs": [
        {
          "internalType": "address",
          "name": "user",
          "type": "address"
        },
        {
          "internalType": "uint256",
          "name": "amount",
          "type": "uint256"
        }
      ],
      "name": "setCredit",
      "outputs": [],
      "stateMutability": "nonpayable",
      "type": "function"
    },
    {
      "inputs": [
        {
          "internalType": "bytes4",
          "name": "interfaceId",
          "type": "bytes4"
        }
      ],
      "name": "supportsInterface",
      "outputs": [
        {
          "internalType": "bool",
          "name": "",
          "type": "bool"
        }
      ],
      "stateMutability": "view",
      "type": "function"
    },
    {
      "inputs": [],
      "name": "symbol",
      "outputs": [
        {
          "internalType": "string",
          "name": "",
          "type": "string"
        }
      ],
      "stateMutability": "view",
      "type": "function"
    },
    {
      "inputs": [
        {
          "internalType": "uint256",
          "name": "tokenId",
          "type": "uint256"
        }
      ],
      "name": "tokenURI",
      "outputs": [
        {
          "internalType": "string",
          "name": "",
          "type": "string"
        }
      ],
      "stateMutability": "view",
      "type": "function"
    },
    {
      "inputs": [
        {
          "internalType": "address",
          "name": "from",
          "type": "address"
        },
        {
          "internalType": "address",
          "name": "to",
          "type": "address"
        },
        {
          "internalType": "uint256",
          "name": "tokenId",
          "type": "uint256"
        }
      ],
      "name": "transferFrom",
      "outputs": [],
      "stateMutability": "nonpayable",
      "type": "function"
    },
    {
      "inputs": [
        {
          "internalType": "address",
          "name": "newOwner",
          "type": "address"
        }
      ],
      "name": "transferOwnership",
      "outputs": [],
      "stateMutability": "nonpayable",
      "type": "function"
    }
  ],
  "bytecode": {
    "object": "0x60806040523480156200001157600080fd5b506040518060400160405280600781526020016626bcaa37b5b2b760c91b815250604051806040016040528060038152602001624d544b60e81b81525081600090816200005f91906200018c565b5060016200006e82826200018c565b5050506200008b620000856200009160201b60201c565b62000095565b62000258565b3390565b600680546001600160a01b038381166001600160a01b0319831681179093556040519116919082907f8be0079c531659141344cd1fd0a4f28419497f9722a3daafe3b4186f6b6457e090600090a35050565b634e487b7160e01b600052604160045260246000fd5b600181811c908216806200011257607f821691505b6020821081036200013357634e487b7160e01b600052602260045260246000fd5b50919050565b601f8211156200018757600081815260208120601f850160051c81016020861015620001625750805b601f850160051c820191505b8181101562000183578281556001016200016e565b5050505b505050565b81516001600160401b03811115620001a857620001a8620000e7565b620001c081620001b98454620000fd565b8462000139565b602080601f831160018114620001f85760008415620001df5750858301515b600019600386901b1c1916600185901b17855562000183565b600085815260208120601f198616915b82811015620002295788860151825594840194600190910190840162000208565b5085821015620002485787850151600019600388901b60f8161c191681555b5050505050600190811b01905550565b61178a80620002686000396000f3fe608060405234801561001057600080fd5b506004361061012c5760003560e01c80638da5cb5b116100ad578063b88d4fde11610071578063b88d4fde14610275578063c87b56dd14610288578063e985e9c51461029b578063f2fde38b146102ae578063fe5ff468146102c157600080fd5b80638da5cb5b146102235780638ee93cf31461023457806395d89b4114610247578063a22cb4651461024f578063b40ee8b41461026257600080fd5b806323b872dd116100f457806323b872dd146101c157806342842e0e146101d45780636352211e146101e757806370a08231146101fa578063715018a61461021b57600080fd5b806301ffc9a71461013157806306fdde0314610159578063081812fc1461016e578063095ea7b3146101995780630d80fefd146101ae575b600080fd5b61014461013f366004611167565b6102e1565b60405190151581526020015b60405180910390f35b610161610333565b60405161015091906111d4565b61018161017c3660046111e7565b6103c5565b6040516001600160a01b039091168152602001610150565b6101ac6101a736600461121c565b6103ec565b005b6101616101bc3660046111e7565b610506565b6101ac6101cf366004611246565b6105a0565b6101ac6101e2366004611246565b6105d1565b6101816101f53660046111e7565b6105ec565b61020d610208366004611282565b61064c565b604051908152602001610150565b6101ac6106d2565b6006546001600160a01b0316610181565b6101ac610242366004611329565b6106e6565b610161610726565b6101ac61025d366004611372565b610735565b6101ac61027036600461121c565b610744565b6101ac6102833660046113ae565b61077d565b6101616102963660046111e7565b6107b5565b6101446102a936600461142a565b610829565b6101ac6102bc366004611282565b610857565b61020d6102cf366004611282565b60096020526000908152604090205481565b60006001600160e01b031982166380ac58cd60e01b148061031257506001600160e01b03198216635b5e139f60e01b145b8061032d57506301ffc9a760e01b6001600160e01b03198316145b92915050565b6060600080546103429061145d565b80601f016020809104026020016040519081016040528092919081815260200182805461036e9061145d565b80156103bb5780601f10610390576101008083540402835291602001916103bb565b820191906000526020600020905b81548152906001019060200180831161039e57829003601f168201915b5050505050905090565b60006103d0826108d0565b506000908152600460205260409020546001600160a01b031690565b60006103f7826105ec565b9050806001600160a01b0316836001600160a01b0316036104695760405162461bcd60e51b815260206004820152602160248201527f4552433732313a20617070726f76616c20746f2063757272656e74206f776e656044820152603960f91b60648201526084015b60405180910390fd5b336001600160a01b038216148061048557506104858133610829565b6104f75760405162461bcd60e51b815260206004820152603d60248201527f4552433732313a20617070726f76652063616c6c6572206973206e6f7420746f60448201527f6b656e206f776e6572206f7220617070726f76656420666f7220616c6c0000006064820152608401610460565b610501838361092f565b505050565b6008602052600090815260409020805461051f9061145d565b80601f016020809104026020016040519081016040528092919081815260200182805461054b9061145d565b80156105985780601f1061056d57610100808354040283529160200191610598565b820191906000526020600020905b81548152906001019060200180831161057b57829003601f168201915b505050505081565b6105aa338261099d565b6105c65760405162461bcd60e51b815260040161046090611497565b6105018383836109fc565b6105018383836040518060200160405280600081525061077d565b6000818152600260205260408120546001600160a01b03168061032d5760405162461bcd60e51b8152602060048201526018602482015277115490cdcc8c4e881a5b9d985b1a59081d1bdad95b88125160421b6044820152606401610460565b60006001600160a01b0382166106b65760405162461bcd60e51b815260206004820152602960248201527f4552433732313a2061646472657373207a65726f206973206e6f7420612076616044820152683634b21037bbb732b960b91b6064820152608401610460565b506001600160a01b031660009081526003602052604090205490565b6106da610b60565b6106e46000610bba565b565b6106f233600754610c0c565b600754600090815260086020526040902061070d8282611532565b506007805490600061071e83611608565b919050555050565b6060600180546103429061145d565b610740338383610c26565b5050565b61074c610b60565b6001600160a01b03821660009081526009602052604081208054839290610774908490611621565b90915550505050565b610787338361099d565b6107a35760405162461bcd60e51b815260040161046090611497565b6107af84848484610cf4565b50505050565b60606107c0826108d0565b60006107d760408051602081019091526000815290565b905060008151116107f75760405180602001604052806000815250610822565b8061080184610d27565b604051602001610812929190611634565b6040516020818303038152906040525b9392505050565b6001600160a01b03918216600090815260056020908152604080832093909416825291909152205460ff1690565b61085f610b60565b6001600160a01b0381166108c45760405162461bcd60e51b815260206004820152602660248201527f4f776e61626c653a206e6577206f776e657220697320746865207a65726f206160448201526564647265737360d01b6064820152608401610460565b6108cd81610bba565b50565b6000818152600260205260409020546001600160a01b03166108cd5760405162461bcd60e51b8152602060048201526018602482015277115490cdcc8c4e881a5b9d985b1a59081d1bdad95b88125160421b6044820152606401610460565b600081815260046020526040902080546001600160a01b0319166001600160a01b0384169081179091558190610964826105ec565b6001600160a01b03167f8c5be1e5ebec7d5bd14f71427d1e84f3dd0314c0f7b2291e5b200ac8c7c3b92560405160405180910390a45050565b6000806109a9836105ec565b9050806001600160a01b0316846001600160a01b031614806109d057506109d08185610829565b806109f45750836001600160a01b03166109e9846103c5565b6001600160a01b0316145b949350505050565b826001600160a01b0316610a0f826105ec565b6001600160a01b031614610a355760405162461bcd60e51b815260040161046090611663565b6001600160a01b038216610a975760405162461bcd60e51b8152602060048201526024808201527f4552433732313a207472616e7366657220746f20746865207a65726f206164646044820152637265737360e01b6064820152608401610460565b826001600160a01b0316610aaa826105ec565b6001600160a01b031614610ad05760405162461bcd60e51b815260040161046090611663565b600081815260046020908152604080832080546001600160a01b03199081169091556001600160a01b0387811680865260038552838620805460001901905590871680865283862080546001019055868652600290945282852080549092168417909155905184937fddf252ad1be2c89b69c2b068fc378daa952ba7f163c4a11628f55a4df523b3ef91a4505050565b6006546001600160a01b031633146106e45760405162461bcd60e51b815260206004820181905260248201527f4f776e61626c653a2063616c6c6572206973206e6f7420746865206f776e65726044820152606401610460565b600680546001600160a01b038381166001600160a01b0319831681179093556040519116919082907f8be0079c531659141344cd1fd0a4f28419497f9722a3daafe3b4186f6b6457e090600090a35050565b610740828260405180602001604052806000815250610dba565b816001600160a01b0316836001600160a01b031603610c875760405162461bcd60e51b815260206004820152601960248201527f4552433732313a20617070726f766520746f2063616c6c6572000000000000006044820152606401610460565b6001600160a01b03838116600081815260056020908152604080832094871680845294825291829020805460ff191686151590811790915591519182527f17307eab39ab6107e8899845ad3d59bd9653f200f220920489ca2b5937696c31910160405180910390a3505050565b610cff8484846109fc565b610d0b84848484610ded565b6107af5760405162461bcd60e51b8152600401610460906116a8565b60606000610d3483610eee565b600101905060008167ffffffffffffffff811115610d5457610d5461129d565b6040519080825280601f01601f191660200182016040528015610d7e576020820181803683370190505b5090508181016020015b600019016f181899199a1a9b1b9c1cb0b131b232b360811b600a86061a8153600a8504945084610d8857509392505050565b610dc48383610fc6565b610dd16000848484610ded565b6105015760405162461bcd60e51b8152600401610460906116a8565b60006001600160a01b0384163b15610ee357604051630a85bd0160e11b81526001600160a01b0385169063150b7a0290610e319033908990889088906004016116fa565b6020604051808303816000875af1925050508015610e6c575060408051601f3d908101601f19168201909252610e6991810190611737565b60015b610ec9573d808015610e9a576040519150601f19603f3d011682016040523d82523d6000602084013e610e9f565b606091505b508051600003610ec15760405162461bcd60e51b8152600401610460906116a8565b805181602001fd5b6001600160e01b031916630a85bd0160e11b1490506109f4565b506001949350505050565b60008072184f03e93ff9f4daa797ed6e38ed64bf6a1f0160401b8310610f2d5772184f03e93ff9f4daa797ed6e38ed64bf6a1f0160401b830492506040015b6d04ee2d6d415b85acef81000000008310610f59576d04ee2d6d415b85acef8100000000830492506020015b662386f26fc100008310610f7757662386f26fc10000830492506010015b6305f5e1008310610f8f576305f5e100830492506008015b6127108310610fa357612710830492506004015b60648310610fb5576064830492506002015b600a831061032d5760010192915050565b6001600160a01b03821661101c5760405162461bcd60e51b815260206004820181905260248201527f4552433732313a206d696e7420746f20746865207a65726f20616464726573736044820152606401610460565b6000818152600260205260409020546001600160a01b0316156110815760405162461bcd60e51b815260206004820152601c60248201527f4552433732313a20746f6b656e20616c7265616479206d696e746564000000006044820152606401610460565b6000818152600260205260409020546001600160a01b0316156110e65760405162461bcd60e51b815260206004820152601c60248201527f4552433732313a20746f6b656e20616c7265616479206d696e746564000000006044820152606401610460565b6001600160a01b038216600081815260036020908152604080832080546001019055848352600290915280822080546001600160a01b0319168417905551839291907fddf252ad1be2c89b69c2b068fc378daa952ba7f163c4a11628f55a4df523b3ef908290a45050565b6001600160e01b0319811681146108cd57600080fd5b60006020828403121561117957600080fd5b813561082281611151565b60005b8381101561119f578181015183820152602001611187565b50506000910152565b600081518084526111c0816020860160208601611184565b601f01601f19169290920160200192915050565b60208152600061082260208301846111a8565b6000602082840312156111f957600080fd5b5035919050565b80356001600160a01b038116811461121757600080fd5b919050565b6000806040838503121561122f57600080fd5b61123883611200565b946020939093013593505050565b60008060006060848603121561125b57600080fd5b61126484611200565b925061127260208501611200565b9150604084013590509250925092565b60006020828403121561129457600080fd5b61082282611200565b634e487b7160e01b600052604160045260246000fd5b600067ffffffffffffffff808411156112ce576112ce61129d565b604051601f8501601f19908116603f011681019082821181831017156112f6576112f661129d565b8160405280935085815286868601111561130f57600080fd5b858560208301376000602087830101525050509392505050565b60006020828403121561133b57600080fd5b813567ffffffffffffffff81111561135257600080fd5b8201601f8101841361136357600080fd5b6109f4848235602084016112b3565b6000806040838503121561138557600080fd5b61138e83611200565b9150602083013580151581146113a357600080fd5b809150509250929050565b600080600080608085870312156113c457600080fd5b6113cd85611200565b93506113db60208601611200565b925060408501359150606085013567ffffffffffffffff8111156113fe57600080fd5b8501601f8101871361140f57600080fd5b61141e878235602084016112b3565b91505092959194509250565b6000806040838503121561143d57600080fd5b61144683611200565b915061145460208401611200565b90509250929050565b600181811c9082168061147157607f821691505b60208210810361149157634e487b7160e01b600052602260045260246000fd5b50919050565b6020808252602d908201527f4552433732313a2063616c6c6572206973206e6f7420746f6b656e206f776e6560408201526c1c881bdc88185c1c1c9bdd9959609a1b606082015260800190565b601f82111561050157600081815260208120601f850160051c8101602086101561150b5750805b601f850160051c820191505b8181101561152a57828155600101611517565b505050505050565b815167ffffffffffffffff81111561154c5761154c61129d565b6115608161155a845461145d565b846114e4565b602080601f831160018114611595576000841561157d5750858301515b600019600386901b1c1916600185901b17855561152a565b600085815260208120601f198616915b828110156115c4578886015182559484019460019091019084016115a5565b50858210156115e25787850151600019600388901b60f8161c191681555b5050505050600190811b01905550565b634e487b7160e01b600052601160045260246000fd5b60006001820161161a5761161a6115f2565b5060010190565b8082018082111561032d5761032d6115f2565b60008351611646818460208801611184565b83519083019061165a818360208801611184565b01949350505050565b60208082526025908201527f4552433732313a207472616e736665722066726f6d20696e636f72726563742060408201526437bbb732b960d91b606082015260800190565b60208082526032908201527f4552433732313a207472616e7366657220746f206e6f6e20455243373231526560408201527131b2b4bb32b91034b6b83632b6b2b73a32b960711b606082015260800190565b6001600160a01b038581168252841660208201526040810183905260806060820181905260009061172d908301846111a8565b9695505050505050565b60006020828403121561174957600080fd5b81516108228161115156fea2646970667358221220c2e6733aa7938882f8f6f6dd268240f08ed8e90245203647584361447bd6bd7e64736f6c63430008130033",
    "linkReferences": {}
  },
  "methodIdentifiers": {
    "approve(address,uint256)": "095ea7b3",
    "balanceOf(address)": "70a08231",
    "credits(address)": "fe5ff468",
    "getApproved(uint256)": "081812fc",
    "isApprovedForAll(address,address)": "e985e9c5",
    "messages(uint256)": "0d80fefd",
    "name()": "06fdde03",
    "owner()": "8da5cb5b",
    "ownerOf(uint256)": "6352211e",
    "post(string)": "8ee93cf3",
    "renounceOwnership()": "715018a6",
    "safeTransferFrom(address,address,uint256)": "42842e0e",
    "safeTransferFrom(address,address,uint256,bytes)": "b88d4fde",
    "setApprovalForAll(address,bool)": "a22cb465",
    "setCredit(address,uint256)": "b40ee8b4",
    "supportsInterface(bytes4)": "01ffc9a7",
    "symbol()": "95d89b41",
    "tokenURI(uint256)": "c87b56dd",
    "transferFrom(address,address,uint256)": "23b872dd",
    "transferOwnership(address)": "f2fde38b"
  },
  "id": 11
}